{
    "contractName": "Dealz",
    "abi": [
        {
            "inputs": [],
            "stateMutability": "nonpayable",
            "type": "constructor"
        },
        {
            "anonymous": false,
            "inputs": [
                {
                    "indexed": true,
                    "internalType": "address",
                    "name": "owner",
                    "type": "address"
                },
                {
                    "indexed": true,
                    "internalType": "address",
                    "name": "spender",
                    "type": "address"
                },
                {
                    "indexed": false,
                    "internalType": "uint256",
                    "name": "value",
                    "type": "uint256"
                }
            ],
            "name": "Approval",
            "type": "event"
        },
        {
            "anonymous": false,
            "inputs": [
                {
                    "indexed": true,
                    "internalType": "address",
                    "name": "previousOwner",
                    "type": "address"
                },
                {
                    "indexed": true,
                    "internalType": "address",
                    "name": "newOwner",
                    "type": "address"
                }
            ],
            "name": "OwnershipTransferred",
            "type": "event"
        },
        {
            "anonymous": false,
            "inputs": [
                {
                    "indexed": true,
                    "internalType": "address",
                    "name": "from",
                    "type": "address"
                },
                {
                    "indexed": true,
                    "internalType": "address",
                    "name": "to",
                    "type": "address"
                },
                {
                    "indexed": false,
                    "internalType": "uint256",
                    "name": "value",
                    "type": "uint256"
                }
            ],
            "name": "Transfer",
            "type": "event"
        },
        {
            "inputs": [
                {
                    "internalType": "address",
                    "name": "_stakeholder",
                    "type": "address"
                }
            ],
            "name": "addStakeholder",
            "outputs": [],
            "stateMutability": "nonpayable",
            "type": "function"
        },
        {
            "inputs": [],
            "name": "advisorAddress",
            "outputs": [
                {
                    "internalType": "address",
                    "name": "",
                    "type": "address"
                }
            ],
            "stateMutability": "view",
            "type": "function"
        },
        {
            "inputs": [
                {
                    "internalType": "address",
                    "name": "owner",
                    "type": "address"
                },
                {
                    "internalType": "address",
                    "name": "spender",
                    "type": "address"
                }
            ],
            "name": "allowance",
            "outputs": [
                {
                    "internalType": "uint256",
                    "name": "",
                    "type": "uint256"
                }
            ],
            "stateMutability": "view",
            "type": "function"
        },
        {
            "inputs": [
                {
                    "internalType": "address",
                    "name": "spender",
                    "type": "address"
                },
                {
                    "internalType": "uint256",
                    "name": "amount",
                    "type": "uint256"
                }
            ],
            "name": "approve",
            "outputs": [
                {
                    "internalType": "bool",
                    "name": "",
                    "type": "bool"
                }
            ],
            "stateMutability": "nonpayable",
            "type": "function"
        },
        {
            "inputs": [
                {
                    "internalType": "address",
                    "name": "account",
                    "type": "address"
                }
            ],
            "name": "balanceOf",
            "outputs": [
                {
                    "internalType": "uint256",
                    "name": "",
                    "type": "uint256"
                }
            ],
            "stateMutability": "view",
            "type": "function"
        },
        {
            "inputs": [
                {
                    "internalType": "uint256",
                    "name": "_stake",
                    "type": "uint256"
                },
                {
                    "internalType": "uint256",
                    "name": "_unlockDate",
                    "type": "uint256"
                }
            ],
            "name": "createStake",
            "outputs": [],
            "stateMutability": "nonpayable",
            "type": "function"
        },
        {
            "inputs": [
                {
                    "internalType": "uint256",
                    "name": "_stake",
                    "type": "uint256"
                },
                {
                    "internalType": "uint256",
                    "name": "_unlockDate",
                    "type": "uint256"
                },
                {
                    "internalType": "address",
                    "name": "_address",
                    "type": "address"
                }
            ],
            "name": "createVestingAdmin",
            "outputs": [],
            "stateMutability": "nonpayable",
            "type": "function"
        },
        {
            "inputs": [],
            "name": "decimals",
            "outputs": [
                {
                    "internalType": "uint8",
                    "name": "",
                    "type": "uint8"
                }
            ],
            "stateMutability": "view",
            "type": "function"
        },
        {
            "inputs": [
                {
                    "internalType": "address",
                    "name": "spender",
                    "type": "address"
                },
                {
                    "internalType": "uint256",
                    "name": "subtractedValue",
                    "type": "uint256"
                }
            ],
            "name": "decreaseAllowance",
            "outputs": [
                {
                    "internalType": "bool",
                    "name": "",
                    "type": "bool"
                }
            ],
            "stateMutability": "nonpayable",
            "type": "function"
        },
        {
            "inputs": [
                {
                    "internalType": "address",
                    "name": "account",
                    "type": "address"
                }
            ],
            "name": "excludeAccount",
            "outputs": [],
            "stateMutability": "nonpayable",
            "type": "function"
        },
        {
            "inputs": [],
            "name": "governanceAddress",
            "outputs": [
                {
                    "internalType": "address",
                    "name": "",
                    "type": "address"
                }
            ],
            "stateMutability": "view",
            "type": "function"
        },
        {
            "inputs": [],
            "name": "grantAddress",
            "outputs": [
                {
                    "internalType": "address",
                    "name": "",
                    "type": "address"
                }
            ],
            "stateMutability": "view",
            "type": "function"
        },
        {
            "inputs": [
                {
                    "internalType": "address",
                    "name": "account",
                    "type": "address"
                }
            ],
            "name": "includeAccount",
            "outputs": [],
            "stateMutability": "nonpayable",
            "type": "function"
        },
        {
            "inputs": [
                {
                    "internalType": "address",
                    "name": "spender",
                    "type": "address"
                },
                {
                    "internalType": "uint256",
                    "name": "addedValue",
                    "type": "uint256"
                }
            ],
            "name": "increaseAllowance",
            "outputs": [
                {
                    "internalType": "bool",
                    "name": "",
                    "type": "bool"
                }
            ],
            "stateMutability": "nonpayable",
            "type": "function"
        },
        {
            "inputs": [
                {
                    "internalType": "address",
                    "name": "account",
                    "type": "address"
                }
            ],
            "name": "isExcluded",
            "outputs": [
                {
                    "internalType": "bool",
                    "name": "",
                    "type": "bool"
                }
            ],
            "stateMutability": "view",
            "type": "function"
        },
        {
            "inputs": [
                {
                    "internalType": "address",
                    "name": "_address",
                    "type": "address"
                }
            ],
            "name": "isStakeholder",
            "outputs": [
                {
                    "internalType": "bool",
                    "name": "",
                    "type": "bool"
                },
                {
                    "internalType": "uint256",
                    "name": "",
                    "type": "uint256"
                }
            ],
            "stateMutability": "view",
            "type": "function"
        },
        {
            "inputs": [],
            "name": "isTeamholder",
            "outputs": [
                {
                    "internalType": "bool",
                    "name": "",
                    "type": "bool"
                }
            ],
            "stateMutability": "view",
            "type": "function"
        },
        {
            "inputs": [],
            "name": "name",
            "outputs": [
                {
                    "internalType": "string",
                    "name": "",
                    "type": "string"
                }
            ],
            "stateMutability": "view",
            "type": "function"
        },
        {
            "inputs": [],
            "name": "operationAddress",
            "outputs": [
                {
                    "internalType": "address",
                    "name": "",
                    "type": "address"
                }
            ],
            "stateMutability": "view",
            "type": "function"
        },
        {
            "inputs": [],
            "name": "owner",
            "outputs": [
                {
                    "internalType": "address",
                    "name": "",
                    "type": "address"
                }
            ],
            "stateMutability": "view",
            "type": "function"
        },
        {
            "inputs": [],
            "name": "privatesaleAddress",
            "outputs": [
                {
                    "internalType": "address",
                    "name": "",
                    "type": "address"
                }
            ],
            "stateMutability": "view",
            "type": "function"
        },
        {
            "inputs": [],
            "name": "publicAddress",
            "outputs": [
                {
                    "internalType": "address",
                    "name": "",
                    "type": "address"
                }
            ],
            "stateMutability": "view",
            "type": "function"
        },
        {
            "inputs": [
                {
                    "internalType": "uint256",
                    "name": "tAmount",
                    "type": "uint256"
                }
            ],
            "name": "reflect",
            "outputs": [],
            "stateMutability": "nonpayable",
            "type": "function"
        },
        {
            "inputs": [
                {
                    "internalType": "uint256",
                    "name": "tAmount",
                    "type": "uint256"
                },
                {
                    "internalType": "bool",
                    "name": "deductTransferFee",
                    "type": "bool"
                }
            ],
            "name": "reflectionFromToken",
            "outputs": [
                {
                    "internalType": "uint256",
                    "name": "",
                    "type": "uint256"
                }
            ],
            "stateMutability": "view",
            "type": "function"
        },
        {
            "inputs": [
                {
                    "internalType": "uint256",
                    "name": "_stake",
                    "type": "uint256"
                },
                {
                    "internalType": "address",
                    "name": "_address",
                    "type": "address"
                }
            ],
            "name": "removeStakeAdmin",
            "outputs": [],
            "stateMutability": "nonpayable",
            "type": "function"
        },
        {
            "inputs": [
                {
                    "internalType": "address",
                    "name": "_stakeholder",
                    "type": "address"
                }
            ],
            "name": "removeStakeholder",
            "outputs": [],
            "stateMutability": "nonpayable",
            "type": "function"
        },
        {
            "inputs": [],
            "name": "renounceOwnership",
            "outputs": [],
            "stateMutability": "nonpayable",
            "type": "function"
        },
        {
            "inputs": [
                {
                    "internalType": "address",
                    "name": "_stakeholder",
                    "type": "address"
                }
            ],
            "name": "stakeOf",
            "outputs": [
                {
                    "internalType": "uint256",
                    "name": "",
                    "type": "uint256"
                }
            ],
            "stateMutability": "view",
            "type": "function"
        },
        {
            "inputs": [],
            "name": "stakingAddress",
            "outputs": [
                {
                    "internalType": "address",
                    "name": "",
                    "type": "address"
                }
            ],
            "stateMutability": "view",
            "type": "function"
        },
        {
            "inputs": [],
            "name": "symbol",
            "outputs": [
                {
                    "internalType": "string",
                    "name": "",
                    "type": "string"
                }
            ],
            "stateMutability": "view",
            "type": "function"
        },
        {
            "inputs": [],
            "name": "teamAddress",
            "outputs": [
                {
                    "internalType": "address",
                    "name": "",
                    "type": "address"
                }
            ],
            "stateMutability": "view",
            "type": "function"
        },
        {
            "inputs": [
                {
                    "internalType": "uint256",
                    "name": "rAmount",
                    "type": "uint256"
                }
            ],
            "name": "tokenFromReflection",
            "outputs": [
                {
                    "internalType": "uint256",
                    "name": "",
                    "type": "uint256"
                }
            ],
            "stateMutability": "view",
            "type": "function"
        },
        {
            "inputs": [],
            "name": "totalFees",
            "outputs": [
                {
                    "internalType": "uint256",
                    "name": "",
                    "type": "uint256"
                }
            ],
            "stateMutability": "view",
            "type": "function"
        },
        {
            "inputs": [],
            "name": "totalSupply",
            "outputs": [
                {
                    "internalType": "uint256",
                    "name": "",
                    "type": "uint256"
                }
            ],
            "stateMutability": "view",
            "type": "function"
        },
        {
            "inputs": [
                {
                    "internalType": "address",
                    "name": "recipient",
                    "type": "address"
                },
                {
                    "internalType": "uint256",
                    "name": "amount",
                    "type": "uint256"
                }
            ],
            "name": "transfer",
            "outputs": [
                {
                    "internalType": "bool",
                    "name": "",
                    "type": "bool"
                }
            ],
            "stateMutability": "nonpayable",
            "type": "function"
        },
        {
            "inputs": [
                {
                    "internalType": "address",
                    "name": "sender",
                    "type": "address"
                },
                {
                    "internalType": "address",
                    "name": "recipient",
                    "type": "address"
                },
                {
                    "internalType": "uint256",
                    "name": "amount",
                    "type": "uint256"
                }
            ],
            "name": "transferFrom",
            "outputs": [
                {
                    "internalType": "bool",
                    "name": "",
                    "type": "bool"
                }
            ],
            "stateMutability": "nonpayable",
            "type": "function"
        },
        {
            "inputs": [
                {
                    "internalType": "address",
                    "name": "newOwner",
                    "type": "address"
                }
            ],
            "name": "transferOwnership",
            "outputs": [],
            "stateMutability": "nonpayable",
            "type": "function"
        },
        {
            "inputs": [],
            "name": "unlockDate",
            "outputs": [
                {
                    "internalType": "uint256",
                    "name": "",
                    "type": "uint256"
                }
            ],
            "stateMutability": "view",
            "type": "function"
        }
    ],
    "bytecode": "6715fb86cdf77fffff1960125560c060405260056080819052642232b0b63d60d91b60a090815262000035916014919062000826565b506040805180820190915260038082526222262d60e91b6020909201918252620000629160159162000826565b506016805460ff191660091790553480156200007d57600080fd5b506000620000936001600160e01b03620006c916565b600080546001600160a01b0319166001600160a01b0383169081178255604051929350917f8be0079c531659141344cd1fd0a4f28419497f9722a3daafe3b4186f6b6457e0908290a350600680546001600160a01b0319908116735b38da6a701c568545dcfcb03fcb875f56beddc4179091556007805482167386a5266ed8954f2363084905997601fb76bd78a317905560088054821673b28f18188c06e71eadd9064cd2b05faa416c6e3a17905560098054821673d05f4e3e42caeb7a7c404dc298d881370fb5eb59179055600a805482167329c51b613811386a52da5bfe471dfe92d9de4679178155600b80548316733a883f35e0bc32c034959d84627c8af648371365179055600c8054831673e3a58ff112aeb4f2e2ec72f5a654cdbf4d4dfe91179055600d805490921673c70f630ed92da3aba2510e37ace92e72e5c280a417909155671bc16d674ec7ffff19906200021d906003906200020990849062001dc5620006ce602090811b91909117901c565b6200072160201b62001e8e1790919060201c565b6006546001600160a01b03166000908152600160208181526040909220929092556200025d919062000209908490600a9062001dc5620006ce821b17901c565b6007546001600160a01b03166000908152600160209081526040909120919091556200029f906003906200020990849060649062001dc5620006ce821b17901c565b6008546001600160a01b0316600090815260016020818152604090922092909255620002df91906200020990849060149062001dc5620006ce821b17901c565b6009546001600160a01b03166000908152600160208181526040909220929092556200031f91906200020990849060059062001dc5620006ce821b17901c565b600a546001600160a01b03166000908152600160208181526040909220929092556200035f91906200020990849060149062001dc5620006ce821b17901c565b600b546001600160a01b0316600090815260016020908152604090912091909155620003a1906017906200020990849060649062001dc5620006ce821b17901c565b600c546001600160a01b0316600090815260016020818152604090922092909255620003e191906200020990849060199062001dc5620006ce821b17901c565b600d546001600160a01b0390811660009081526001602090815260408083209490945560065484516323c3460081529451931693919260008051602062002f018339815191529281900390910190a3600754604080516303938700815290516001600160a01b039092169160009160008051602062002f01833981519152919081900360200190a360085460408051630bebc200815290516001600160a01b039092169160009160008051602062002f01833981519152919081900360200190a3600954604080516305f5e100815290516001600160a01b039092169160009160008051602062002f01833981519152919081900360200190a3600a54604080516317d78400815290516001600160a01b039092169160009160008051602062002f01833981519152919081900360200190a3600b54604080516305f5e100815290516001600160a01b039092169160009160008051602062002f01833981519152919081900360200190a3600c5460408051631b6b0b00815290516001600160a01b039092169160009160008051602062002f01833981519152919081900360200190a3600d54604080516304c4b400815290516001600160a01b039092169160009160008051602062002f01833981519152919081900360200190a350600654601080546001818101835560008390527f1b6847dc741a1b0cd08d278845f9d819d87b734759afb55fe2de5cb82a9ae67291820180546001600160a01b03199081166001600160a01b0396871617909155600754845480840186558401805483169187169190911790556008548454808401865584018054831691871691909117905560095484548084018655840180548316918716919091179055600a5484548084018655840180548316918716919091179055600b5484548084018655840180548316918716919091179055600c5484548084018655840180548316918716919091179055600d5484549283019094559101805490911691909216179055620008c8565b335b90565b60006200071883836040518060400160405280601a81526020017f536166654d6174683a206469766973696f6e206279207a65726f0000000000008152506200077f60201b60201c565b90505b92915050565b60008262000732575060006200071b565b828202828482816200074057fe5b0414620007185760405162461bcd60e51b815260040180806020018281038252602181526020018062002ee06021913960400191505060405180910390fd5b600081836200080f5760405162461bcd60e51b81526004018080602001828103825283818151815260200191508051906020019080838360005b83811015620007d3578181015183820152602001620007b9565b50505050905090810190601f168015620008015780820380516001836020036101000a031916815260200191505b509250505060405180910390fd5b5060008385816200081c57fe5b0495945050505050565b828054600181600116156101000203166002900490600052602060002090601f016020900481019282601f106200086957805160ff191683800117855562000899565b8280016001018555821562000899579182015b82811115620008995782518255916020019190600101906200087c565b50620008a7929150620008ab565b5090565b620006cb91905b80821115620008a75760008155600101620008b2565b61260880620008d86000396000f3fe608060405234801561001057600080fd5b50600436106102325760003560e01c80638da5cb5b11610130578063d7b4be24116100b8578063f2cc0c181161007c578063f2cc0c1814610671578063f2fde38b14610697578063f676f331146106bd578063f71cbca8146106c5578063f84354f1146106cd57610232565b8063d7b4be24146105b1578063d7fa023d146105b9578063dd62ed3e146105dc578063e5c42fd11461060a578063ef037b901461063057610232565b8063a457c2d7116100ff578063a457c2d714610505578063a757ac4b14610531578063a9059cbb14610539578063bcb0c2d714610565578063cba0e9961461058b57610232565b80638da5cb5b146104e557806395d89b41146104ed57806396d4d091146104f5578063a441c302146104fd57610232565b80632d838119116101be57806369ac57211161018257806369ac57211461049f57806370a08231146104a7578063715018a6146104cd578063795053d3146104d55780638352209d146104dd57610232565b80632d838119146103ed578063313ce5671461040a578063395093511461042857806342623360146104545780634549b0391461047a57610232565b806318160ddd1161020557806318160ddd1461032d5780631c75f0851461033557806323b872dd1461035957806329a312f51461038f5780632a3f9666146103c157610232565b8063053ab1821461023757806306fdde0314610256578063095ea7b3146102d357806313114a9d14610313575b600080fd5b6102546004803603602081101561024d57600080fd5b50356106f3565b005b61025e6107d7565b6040805160208082528351818301528351919283929083019185019080838360005b83811015610298578181015183820152602001610280565b50505050905090810190601f1680156102c55780820380516001836020036101000a031916815260200191505b509250505060405180910390f35b6102ff600480360360408110156102e957600080fd5b506001600160a01b03813516906020013561086e565b604080519115158252519081900360200190f35b61031b61088c565b60408051918252519081900360200190f35b61031b610892565b61033d61089e565b604080516001600160a01b039092168252519081900360200190f35b6102ff6004803603606081101561036f57600080fd5b506001600160a01b038135811691602081013590911690604001356108ad565b610254600480360360608110156103a557600080fd5b50803590602081013590604001356001600160a01b031661093a565b610254600480360360408110156103d757600080fd5b50803590602001356001600160a01b0316610a0f565b61031b6004803603602081101561040357600080fd5b5035610aaf565b610412610b17565b6040805160ff9092168252519081900360200190f35b6102ff6004803603604081101561043e57600080fd5b506001600160a01b038135169060200135610b20565b61031b6004803603602081101561046a57600080fd5b50356001600160a01b0316610b74565b61031b6004803603604081101561049057600080fd5b50803590602001351515610b8f565b61031b610c25565b61031b600480360360208110156104bd57600080fd5b50356001600160a01b0316610c2b565b610254610c8d565b61033d610d2f565b6102ff610d3e565b61033d610d8f565b61025e610d9e565b61033d610dff565b61033d610e0e565b6102ff6004803603604081101561051b57600080fd5b506001600160a01b038135169060200135610e1d565b61033d610e8b565b6102ff6004803603604081101561054f57600080fd5b506001600160a01b038135169060200135610e9a565b6102546004803603602081101561057b57600080fd5b50356001600160a01b0316610eae565b6102ff600480360360208110156105a157600080fd5b50356001600160a01b0316610f5d565b61033d610f7b565b610254600480360360408110156105cf57600080fd5b5080359060200135610f8a565b61031b600480360360408110156105f257600080fd5b506001600160a01b03813581169160200135166110a3565b6102546004803603602081101561062057600080fd5b50356001600160a01b03166110ce565b6106566004803603602081101561064657600080fd5b50356001600160a01b0316611132565b60408051921515835260208301919091528051918290030190f35b6102546004803603602081101561068757600080fd5b50356001600160a01b031661118e565b610254600480360360208110156106ad57600080fd5b50356001600160a01b0316611314565b61033d61140c565b61033d61141b565b610254600480360360208110156106e357600080fd5b50356001600160a01b031661142a565b60006106fd6115e7565b6001600160a01b03811660009081526004602052604090205490915060ff16156107585760405162461bcd60e51b815260040180806020018281038252602c815260200180612582602c913960400191505060405180910390fd5b6000610763836115eb565b505050506001600160a01b03831660009081526001602052604090205490915061078d9082611637565b6001600160a01b0383166000908152600160205260409020556012546107b9908263ffffffff61163716565b6012556013546107cf908463ffffffff61168016565b601355505050565b60148054604080516020601f60026000196101006001881615020190951694909404938401819004810282018101909252828152606093909290918301828280156108635780601f1061083857610100808354040283529160200191610863565b820191906000526020600020905b81548152906001019060200180831161084657829003601f168201915b505050505090505b90565b600061088261087b6115e7565b84846116da565b5060015b92915050565b60135490565b671bc16d674ec8000090565b6006546001600160a01b031681565b60006108ba8484846117c6565b610930846108c66115e7565b61092b85604051806060016040528060288152602001612486602891396001600160a01b038a166000908152600360205260408120906109046115e7565b6001600160a01b03168152602081019190915260400160002054919063ffffffff611ae016565b6116da565b5060019392505050565b610942610d3e565b610993576040805162461bcd60e51b815260206004820152601960248201527f6e6f742061207465616d206d656d626572206164647265737300000000000000604482015290519081900360640190fd5b61099d3384611b77565b600e8290556001600160a01b0381166000908152601160205260409020546109c8576109c8816110ce565b6001600160a01b0381166000908152601160205260409020546109f1908463ffffffff61168016565b6001600160a01b039091166000908152601160205260409020555050565b600e54421015610a505760405162461bcd60e51b81526004018080602001828103825260218152602001806125616021913960400191505060405180910390fd5b6001600160a01b038116600090815260116020526040902054610a79908363ffffffff61163716565b6001600160a01b0382166000908152601160205260409020819055610aa157610aa181610eae565b610aab8183611cf0565b5050565b6000601254821115610af25760405162461bcd60e51b815260040180806020018281038252602a8152602001806123f3602a913960400191505060405180910390fd5b6000610afc611d9c565b9050610b0e838263ffffffff611dc516565b9150505b919050565b60165460ff1690565b6000610882610b2d6115e7565b8461092b8560036000610b3e6115e7565b6001600160a01b03908116825260208083019390935260409182016000908120918c16815292529020549063ffffffff61168016565b6001600160a01b031660009081526011602052604090205490565b6000671bc16d674ec80000831115610bee576040805162461bcd60e51b815260206004820152601f60248201527f416d6f756e74206d757374206265206c657373207468616e20737570706c7900604482015290519081900360640190fd5b81610c0c576000610bfe846115eb565b509294506108869350505050565b6000610c17846115eb565b509194506108869350505050565b600e5481565b6001600160a01b03811660009081526004602052604081205460ff1615610c6b57506001600160a01b038116600090815260026020526040902054610b12565b6001600160a01b03821660009081526001602052604090205461088690610aaf565b610c956115e7565b6000546001600160a01b03908116911614610ce5576040805162461bcd60e51b815260206004820181905260248201526000805160206124ae833981519152604482015290519081900360640190fd5b600080546040516001600160a01b03909116907f8be0079c531659141344cd1fd0a4f28419497f9722a3daafe3b4186f6b6457e0908390a3600080546001600160a01b0319169055565b6009546001600160a01b031681565b6000805b601054811015610d875760108181548110610d5957fe5b6000918252602090912001546001600160a01b0316331415610d7f57600191505061086b565b600101610d42565b506000905090565b6000546001600160a01b031690565b60158054604080516020601f60026000196101006001881615020190951694909404938401819004810282018101909252828152606093909290918301828280156108635780601f1061083857610100808354040283529160200191610863565b6007546001600160a01b031681565b6008546001600160a01b031681565b6000610882610e2a6115e7565b8461092b856040518060600160405280602581526020016125ae6025913960036000610e546115e7565b6001600160a01b03908116825260208083019390935260409182016000908120918d1681529252902054919063ffffffff611ae016565b600b546001600160a01b031681565b6000610882610ea76115e7565b84846117c6565b600080610eba83611132565b915091508115610f5857600f80546000198101908110610ed657fe5b600091825260209091200154600f80546001600160a01b039092169183908110610efc57fe5b9060005260206000200160006101000a8154816001600160a01b0302191690836001600160a01b03160217905550600f805480610f3557fe5b600082815260209020810160001990810180546001600160a01b03191690550190555b505050565b6001600160a01b031660009081526004602052604090205460ff1690565b600a546001600160a01b031681565b804262278d00011115610fe4576040805162461bcd60e51b815260206004820152601960248201527f496e76616c696420746f6b656e20457870697279206461746500000000000000604482015290519081900360640190fd5b816969e10de76676d08000001415611043576040805162461bcd60e51b815260206004820152601860248201527f4c6177796572206d757374207374616b6520302e303235250000000000000000604482015290519081900360640190fd5b61104d3383611b77565b600e8190553360009081526011602052604090205461106f5761106f336110ce565b3360009081526011602052604090205461108f908363ffffffff61168016565b336000908152601160205260409020555050565b6001600160a01b03918216600090815260036020908152604080832093909416825291909152205490565b60006110d982611132565b50905080610aab57600f80546001810182556000919091527f8d1108e10bcb7c27dddfc02ed9d693a074039d026cf4ea4240b40f7d581ac8020180546001600160a01b0384166001600160a01b03199091161790555050565b600080805b600f5481101561118057600f818154811061114e57fe5b6000918252602090912001546001600160a01b038581169116141561117857600192509050611189565b600101611137565b50600091508190505b915091565b6111966115e7565b6000546001600160a01b039081169116146111e6576040805162461bcd60e51b815260206004820181905260248201526000805160206124ae833981519152604482015290519081900360640190fd5b6001600160a01b03811660009081526004602052604090205460ff1615611254576040805162461bcd60e51b815260206004820152601b60248201527f4163636f756e7420697320616c7265616479206578636c756465640000000000604482015290519081900360640190fd5b6001600160a01b038116600090815260016020526040902054156112ae576001600160a01b03811660009081526001602052604090205461129490610aaf565b6001600160a01b0382166000908152600260205260409020555b6001600160a01b03166000818152600460205260408120805460ff191660019081179091556005805491820181559091527f036b6384b5eca791c62761152d0c79bb0604c104a5fb6f4eb0703f3154bb3db00180546001600160a01b0319169091179055565b61131c6115e7565b6000546001600160a01b0390811691161461136c576040805162461bcd60e51b815260206004820181905260248201526000805160206124ae833981519152604482015290519081900360640190fd5b6001600160a01b0381166113b15760405162461bcd60e51b815260040180806020018281038252602681526020018061241d6026913960400191505060405180910390fd5b600080546040516001600160a01b03808516939216917f8be0079c531659141344cd1fd0a4f28419497f9722a3daafe3b4186f6b6457e091a3600080546001600160a01b0319166001600160a01b0392909216919091179055565b600c546001600160a01b031681565b600d546001600160a01b031681565b6114326115e7565b6000546001600160a01b03908116911614611482576040805162461bcd60e51b815260206004820181905260248201526000805160206124ae833981519152604482015290519081900360640190fd5b6001600160a01b03811660009081526004602052604090205460ff166114ef576040805162461bcd60e51b815260206004820152601b60248201527f4163636f756e7420697320616c7265616479206578636c756465640000000000604482015290519081900360640190fd5b60005b600554811015610aab57816001600160a01b03166005828154811061151357fe5b6000918252602090912001546001600160a01b031614156115df5760058054600019810190811061154057fe5b600091825260209091200154600580546001600160a01b03909216918390811061156657fe5b600091825260208083209190910180546001600160a01b0319166001600160a01b039485161790559184168152600282526040808220829055600490925220805460ff1916905560058054806115b857fe5b600082815260209020810160001990810180546001600160a01b0319169055019055610aab565b6001016114f2565b3390565b60008060008060008060006115ff88611e07565b91509150600061160d611d9c565b9050600080600061161f8c8686611e40565b919e909d50909b509599509397509395505050505050565b600061167983836040518060400160405280601e81526020017f536166654d6174683a207375627472616374696f6e206f766572666c6f770000815250611ae0565b9392505050565b600082820183811015611679576040805162461bcd60e51b815260206004820152601b60248201527f536166654d6174683a206164646974696f6e206f766572666c6f770000000000604482015290519081900360640190fd5b6001600160a01b03831661171f5760405162461bcd60e51b815260040180806020018281038252602481526020018061253d6024913960400191505060405180910390fd5b6001600160a01b0382166117645760405162461bcd60e51b81526004018080602001828103825260228152602001806124436022913960400191505060405180910390fd5b6001600160a01b03808416600081815260036020908152604080832094871680845294825291829020859055815185815291517f8c5be1e5ebec7d5bd14f71427d1e84f3dd0314c0f7b2291e5b200ac8c7c3b9259281900390910190a3505050565b6001600160a01b03831661180b5760405162461bcd60e51b81526004018080602001828103825260258152602001806125186025913960400191505060405180910390fd5b6001600160a01b0382166118505760405162461bcd60e51b81526004018080602001828103825260238152602001806123ae6023913960400191505060405180910390fd5b6000811161188f5760405162461bcd60e51b81526004018080602001828103825260298152602001806124ce6029913960400191505060405180910390fd5b60006118c36118b660056118aa85606463ffffffff611dc516565b9063ffffffff611e8e16565b839063ffffffff61163716565b905060006118dd60056118aa85606463ffffffff611dc516565b905060006118e9611d9c565b905060006118fd838363ffffffff611e8e16565b600a546001600160a01b031660009081526002602052604090205490915061192b908463ffffffff61168016565b600a80546001600160a01b03908116600090815260026020908152604080832095909555925490911681526001909152205461196d908263ffffffff61168016565b600a546001600160a01b03908116600090815260016020908152604080832094909455918a1681526004909152205460ff1680156119c457506001600160a01b03861660009081526004602052604090205460ff16155b156119d9576119d4878786611ee7565b611ad7565b6001600160a01b03871660009081526004602052604090205460ff16158015611a1a57506001600160a01b03861660009081526004602052604090205460ff165b15611a2a576119d4878786612010565b6001600160a01b03871660009081526004602052604090205460ff16158015611a6c57506001600160a01b03861660009081526004602052604090205460ff16155b15611a7c576119d48787866120c8565b6001600160a01b03871660009081526004602052604090205460ff168015611abc57506001600160a01b03861660009081526004602052604090205460ff165b15611acc576119d487878661210f565b611ad78787866120c8565b50505050505050565b60008184841115611b6f5760405162461bcd60e51b81526004018080602001828103825283818151815260200191508051906020019080838360005b83811015611b34578181015183820152602001611b1c565b50505050905090810190601f168015611b615780820380516001836020036101000a031916815260200191505b509250505060405180910390fd5b505050900390565b6001600160a01b038216611bbc5760405162461bcd60e51b81526004018080602001828103825260218152602001806124f76021913960400191505060405180910390fd5b8060016000611bc96115e7565b6001600160a01b03166001600160a01b03168152602001908152602001600020541015611c275760405162461bcd60e51b81526004018080602001828103825260228152602001806123d16022913960400191505060405180910390fd5b6000611c31611d9c565b9050611c78611c46838363ffffffff611e8e16565b60016000611c526115e7565b6001600160a01b031681526020810191909152604001600020549063ffffffff61163716565b60016000611c846115e7565b6001600160a01b031681526020810191909152604001600090812091909155611cab6115e7565b6001600160a01b03167fddf252ad1be2c89b69c2b068fc378daa952ba7f163c4a11628f55a4df523b3ef846040518082815260200191505060405180910390a3505050565b6001600160a01b038216611d4b576040805162461bcd60e51b815260206004820152601f60248201527f45524332303a206d696e7420746f20746865207a65726f206164647265737300604482015290519081900360640190fd5b6000611d55611d9c565b9050611c78611d6a838363ffffffff611e8e16565b60016000611d766115e7565b6001600160a01b031681526020810191909152604001600020549063ffffffff61168016565b6000806000611da961218b565b9092509050611dbe828263ffffffff611dc516565b9250505090565b600061167983836040518060400160405280601a81526020017f536166654d6174683a206469766973696f6e206279207a65726f000000000000815250612318565b60008080611e2160056118aa86606463ffffffff611dc516565b90506000611e35858363ffffffff61163716565b935090915050915091565b6000808080611e55878663ffffffff611e8e16565b90506000611e69878763ffffffff611e8e16565b90506000611e7d838363ffffffff61163716565b929992985090965090945050505050565b600082611e9d57506000610886565b82820282848281611eaa57fe5b04146116795760405162461bcd60e51b81526004018080602001828103825260218152602001806124656021913960400191505060405180910390fd5b6000806000806000611ef8866115eb565b6001600160a01b038d1660009081526002602052604090205494995092975090955093509150611f2e908763ffffffff61163716565b6001600160a01b038916600090815260026020908152604080832093909355600190522054611f63908663ffffffff61163716565b6001600160a01b03808a166000908152600160205260408082209390935590891681522054611f98908563ffffffff61168016565b6001600160a01b038816600090815260016020526040902055611fbb838261237d565b866001600160a01b0316886001600160a01b03167fddf252ad1be2c89b69c2b068fc378daa952ba7f163c4a11628f55a4df523b3ef846040518082815260200191505060405180910390a35050505050505050565b6000806000806000612021866115eb565b6001600160a01b038d1660009081526001602052604090205494995092975090955093509150612057908663ffffffff61163716565b6001600160a01b03808a16600090815260016020908152604080832094909455918a16815260029091522054612093908363ffffffff61168016565b6001600160a01b038816600090815260026020908152604080832093909355600190522054611f98908563ffffffff61168016565b60008060008060006120d9866115eb565b6001600160a01b038d1660009081526001602052604090205494995092975090955093509150611f63908663ffffffff61163716565b6000806000806000612120866115eb565b6001600160a01b038d1660009081526002602052604090205494995092975090955093509150612156908763ffffffff61163716565b6001600160a01b038916600090815260026020908152604080832093909355600190522054612057908663ffffffff61163716565b6012546000908190671bc16d674ec80000825b6005548110156122d4578260016000600584815481106121ba57fe5b60009182526020808320909101546001600160a01b03168352820192909252604001902054118061221f57508160026000600584815481106121f857fe5b60009182526020808320909101546001600160a01b03168352820192909252604001902054115b1561223c57601254671bc16d674ec8000094509450505050612314565b612282600160006005848154811061225057fe5b60009182526020808320909101546001600160a01b03168352820192909252604001902054849063ffffffff61163716565b92506122ca600260006005848154811061229857fe5b60009182526020808320909101546001600160a01b03168352820192909252604001902054839063ffffffff61163716565b915060010161219e565b506012546122f090671bc16d674ec8000063ffffffff611dc516565b82101561230e57601254671bc16d674ec80000935093505050612314565b90925090505b9091565b600081836123675760405162461bcd60e51b8152602060048201818152835160248401528351909283926044909101919085019080838360008315611b34578181015183820152602001611b1c565b50600083858161237357fe5b0495945050505050565b601254612390908363ffffffff61163716565b6012556013546123a6908263ffffffff61168016565b601355505056fe45524332303a207472616e7366657220746f20746865207a65726f206164647265737345524332303a206275726e20616d6f756e7420657863656564732062616c616e6365416d6f756e74206d757374206265206c657373207468616e20746f74616c207265666c656374696f6e734f776e61626c653a206e6577206f776e657220697320746865207a65726f206164647265737345524332303a20617070726f766520746f20746865207a65726f2061646472657373536166654d6174683a206d756c7469706c69636174696f6e206f766572666c6f7745524332303a207472616e7366657220616d6f756e74206578636565647320616c6c6f77616e63654f776e61626c653a2063616c6c6572206973206e6f7420746865206f776e65725472616e7366657220616d6f756e74206d7573742062652067726561746572207468616e207a65726f45524332303a206275726e2066726f6d20746865207a65726f206164647265737345524332303a207472616e736665722066726f6d20746865207a65726f206164647265737345524332303a20617070726f76652066726f6d20746865207a65726f206164647265737343616e6e6f74207769746864726177206265666f726520756e6c6f636b446174654578636c75646564206164647265737365732063616e6e6f742063616c6c20746869732066756e6374696f6e45524332303a2064656372656173656420616c6c6f77616e63652062656c6f77207a65726fa26469706673582212202df58d7ca3e53bfbbd9f121d095503e63214b070bd04c723118cba42f178dec664736f6c63430006020033536166654d6174683a206d756c7469706c69636174696f6e206f766572666c6f77ddf252ad1be2c89b69c2b068fc378daa952ba7f163c4a11628f55a4df523b3ef",
    "sourcePath": "/Users/evilboyajay/Downloads/Development/smart-contracts/contracts/Dealz.sol",
    "compiler": {
        "name": "solc",
        "version": "0.6.2+commit.bacdbe57"
    },
    "functionHashes": {
        "addStakeholder(address)": "e5c42fd1",
        "advisorAddress()": "96d4d091",
        "allowance(address,address)": "dd62ed3e",
        "approve(address,uint256)": "095ea7b3",
        "balanceOf(address)": "70a08231",
        "createStake(uint256,uint256)": "d7fa023d",
        "createVestingAdmin(uint256,uint256,address)": "29a312f5",
        "decimals()": "313ce567",
        "decreaseAllowance(address,uint256)": "a457c2d7",
        "excludeAccount(address)": "f2cc0c18",
        "governanceAddress()": "795053d3",
        "grantAddress()": "f71cbca8",
        "includeAccount(address)": "f84354f1",
        "increaseAllowance(address,uint256)": "39509351",
        "isExcluded(address)": "cba0e996",
        "isStakeholder(address)": "ef037b90",
        "isTeamholder()": "8352209d",
        "name()": "06fdde03",
        "operationAddress()": "a441c302",
        "owner()": "8da5cb5b",
        "privatesaleAddress()": "a757ac4b",
        "publicAddress()": "f676f331",
        "reflect(uint256)": "053ab182",
        "reflectionFromToken(uint256,bool)": "4549b039",
        "removeStakeAdmin(uint256,address)": "2a3f9666",
        "removeStakeholder(address)": "bcb0c2d7",
        "renounceOwnership()": "715018a6",
        "stakeOf(address)": "42623360",
        "stakingAddress()": "d7b4be24",
        "symbol()": "95d89b41",
        "teamAddress()": "1c75f085",
        "tokenFromReflection(uint256)": "2d838119",
        "totalFees()": "13114a9d",
        "totalSupply()": "18160ddd",
        "transfer(address,uint256)": "a9059cbb",
        "transferFrom(address,address,uint256)": "23b872dd",
        "transferOwnership(address)": "f2fde38b",
        "unlockDate()": "69ac5721"
    },
    "gasEstimates": {
        "creation": {
            "codeDepositCost": "1947200",
            "executionCost": "infinite",
            "totalCost": "infinite"
        },
        "external": {
            "addStakeholder(address)": "infinite",
            "advisorAddress()": "1127",
            "allowance(address,address)": "1339",
            "approve(address,uint256)": "infinite",
            "balanceOf(address)": "infinite",
            "createStake(uint256,uint256)": "infinite",
            "createVestingAdmin(uint256,uint256,address)": "infinite",
            "decimals()": "1081",
            "decreaseAllowance(address,uint256)": "infinite",
            "excludeAccount(address)": "infinite",
            "governanceAddress()": "1148",
            "grantAddress()": "1147",
            "includeAccount(address)": "infinite",
            "increaseAllowance(address,uint256)": "infinite",
            "isExcluded(address)": "1287",
            "isStakeholder(address)": "infinite",
            "isTeamholder()": "infinite",
            "name()": "infinite",
            "operationAddress()": "1149",
            "owner()": "1083",
            "privatesaleAddress()": "1104",
            "publicAddress()": "1125",
            "reflect(uint256)": "infinite",
            "reflectionFromToken(uint256,bool)": "infinite",
            "removeStakeAdmin(uint256,address)": "infinite",
            "removeStakeholder(address)": "infinite",
            "renounceOwnership()": "infinite",
            "stakeOf(address)": "1254",
            "stakingAddress()": "1082",
            "symbol()": "infinite",
            "teamAddress()": "1105",
            "tokenFromReflection(uint256)": "infinite",
            "totalFees()": "1111",
            "totalSupply()": "244",
            "transfer(address,uint256)": "infinite",
            "transferFrom(address,address,uint256)": "infinite",
            "transferOwnership(address)": "infinite",
            "unlockDate()": "1043"
        },
        "internal": {
            "_approve(address,address,uint256)": "infinite",
            "_burn(address,uint256)": "infinite",
            "_getCurrentSupply()": "infinite",
            "_getRValues(uint256,uint256,uint256)": "infinite",
            "_getRate()": "infinite",
            "_getTValues(uint256)": "infinite",
            "_getValues(uint256)": "infinite",
            "_mint(address,uint256)": "infinite",
            "_reflectFee(uint256,uint256)": "infinite",
            "_transfer(address,address,uint256)": "infinite",
            "_transferBothExcluded(address,address,uint256)": "infinite",
            "_transferFromExcluded(address,address,uint256)": "infinite",
            "_transferStandard(address,address,uint256)": "infinite",
            "_transferToExcluded(address,address,uint256)": "infinite"
        }
    }
}